:100000000C94FC4E0C942D4F0C942D4F0C942D4FB2
:100010000C942D4F0D94B4420C942D4F0C942D4FF5
:100020000D9442420C942D4F0D94A02E0C942D4F04
:100030000C9418DC0C942D4F0C94416B0C9490EAAA
:100040000C942D4F0C94F1700C942D4F0C942D4F5B
:100050000C942D4F0C942D4F0C942D4F0D94D32DAB
:100060000C942D4F0C949DE30C942D4F0C942D4F1C
:100070000C942D4F0C942D4F0C942D4F0C942D4F10
:100080000C942D4F0C942D4F0C942D4F0C942D4F00
:100090000C9459E30C942D4F0C942D4F0C942D4F30
:1000A0000C942D4F0C942D4F0C94D4E90C942D4F9F
:1000B0000C942D4F0C94B6E90C942D4F0C942D4FAD
:1000C0000C942D4F0C942D4F0C942D4F0C943DE916
:1000D0000C942D4F0C942D4F0C942D4F0C942D4FB0
:1000E0000C942D4F000000000000000000000000F4
:1000F0000000000000000000000000000000000000
:10010000A55AB44B932A5F01000074695F01000097
:10011000CE02DF02F2020303160328033B036E0341
:10012000AC03BA03C803E303EC03ED0301042804A2
:10013000360448049304DA04EE04F30402050F05C0
:100140001E0530053D058C0593059F05A505B305E6
:10015000D905EB05F70501060906120680068D068E
:10016000F9060A0717072207300740074A076907F9
:100170007607D507E7070F0817081F082508310875
:100180004308EE08EF08440952095F097409890918
:1001900093099D09CF09E009EA09FB09370A3D0ADD
:1001A000450A580A670A710A800A8D0A9E0AAD0A32
:1001B000BA0AC70AD40AE20A0B0B1D0B2C0B3C0B24
:1001C0004C0B560B7C0B910BA30BF70B320C390C21
:1001D0004B0C570C6C0C7E0CAC0CBE0CCF0C320DC7
:1001E000430D540D650D740D870D970DA90DB90DB7
:1001F000C90DD90DEE0D030E0D0E4B0E6D0E7C0EBE
:100200008F0EAF0ED60EEB0E820FE90FF70F071011
:1002100010101E10311041108C109D10AE10C21025
:10022000CD10DC10EA100411141120112B115611FD
:1002300069118D11AF11BD11CC11E111F11108122D
:100240000D1235123D1245126D127D12851290125B
:100250009612A412AB12B612BF12C812D112E31238
:10026000EE12F212F312001322132B1369139013E0
:100270009713FC1337144214511462147614871424
:100280009B142A155F1594159E1518164C168E167C
:10029000BD16E216131748176A17A117AB17DA171E
:1002A000EB17F7172118331870187618841896185A
:1002B000A918BD18C818D518E918F9183819B019AF
:1002C000BB19071A661A8C1A971AD01A111B211B10
:1002D000761B891B8A1B9A1BAA1BB61BC01B271CDB
:1002E0002F1C361C571C681C741C831C8C1C9D1CEA
:1002F000AE1CF11C4C1D611D6E1D7E1DE71DEE1D0B
:10030000F61DFC1D081E111E221E281E341E3A1E3C
:10031000421E7B1E831E8C1E911EDC1EE81EF71ED5
:10032000021F0B1F151F2A1F371F721F7F1FA01FC1
:100330000820342040204C20C820D920ED20F42073
:1003400006211B212E213D21522159216C2175218D
:1003500081219621CB21FA2134225A227E22A02209
:10036000B122B222C422012304235D23A923EB235B
:10037000EC23FA233E247F24C724D624292566258E
:10038000AA25BD257926AF26BD26BE26BF26C826AE
:10039000D226E026E726EE26FE260C2714273C2749
:1003A0004527612769277427AA2719285228C428B6
:1003B000FF28612975298A29B929172A292A322A69
:1003C0003C2A492A4F2A572A672A752A802A203030
:1003D0002E33206F20696E666572696F7265004604
:1003E0005320302E33206F20696E666572696F72FC
:1003F000650020302E34206F207375706572696F30
:10040000726500465320302E34206F20737570655E
:1004100072696F726500737461746F2073636F6EBD
:100420006F73636975746F005B303B305D2070756E
:100430006E746F206F66667365740052696C6576C2
:100440002E20696D706174746F0A617474697661CD
:1004500062696C6520736F6C6F0A696E204D6F6402
:10046000616C697461206E6F726D616C65004154DE
:1004700054454E5A494F4E453A0A52696C65762E9C
:1004800020696D706174746F0A6469736174746952
:100490007661746F20696E0A4D6F64616C69746176
:1004A0002073696C656E7A696F736100436F6D705C
:1004B000656E73617A2E205A3A004E657373756EBD
:1004C000206572726F726500547574746F20666176
:1004D00074746F2E2042756F6E61207374616D703D
:1004E000612100416D6269656E746500006520637D
:1004F0006C696363617265206D616E6F706F6C61B2
:1005000000492063617272656C6C69205A207369BE
:100510006E2F64657320736F6E6F20616C74657AE3
:100520007A61206D61783F0054726F7661206F723E
:100530006967696E65004175746F63617269632EE6
:100540002066696C616D2E004361726963616D653F
:100550006E746F206175746F6D617469636F20666E
:10056000696C616D656E746F20646973706F6E691C
:1005700062696C6520736F6C6F20636F6E20696CAD
:100580002073656E736F72652061747469766F2E67
:100590002E2E004361726963616D656E746F206118
:1005A00075746F6D617469636F2061747469766FBF
:1005B0002C207072656D69206C61206D616E6F70AA
:1005C0006F6C61206520696E736572697363692061
:1005D000696C2066696C616D2E004C756E6768658C
:1005E0007A7A612064656C6C27617373650041736E
:1005F0007369005069616E6F2F52697363616C6437
:100600002E005069616E6F20666174746F2E005207
:10061000697363616C642E207069616E6F00436F53
:100620007272657A2E206C69762E7069616E6F0029
:10063000546573742063696E67686965004C6976F8
:10064000656C6C616D656E746F207069616E6F2092
:1006500066616C6C69746F2E2053656E736F726582
:10066000204B4F3F20526573696475692073752074
:100670007567656C6C6F3F20496E2061747465739B
:10068000612064692072657365742E004368696136
:10069000726F004C756D696E6F73697461270050DD
:1006A00069616E6F00537461746F2063696E67686F
:1006B000696500426C61636B6F75742072696C656B
:1006C0007661746F2E205265637570657261726514
:1006D000207374616D70613F0043616C6962726187
:1006E0007A696F6E6520486F6D650043616C696261
:1006F00072612058595A0043616C69627261205AD4
:100700000043616C69627261003E416E6E756C6C93
:10071000610043616C696272617A696F6E6520582D
:10072000595A2E2052756F74617265206C61206D6C
:10073000616E6F706F6C612070657220616C7A61A0
:10074000726520696C2063617272656C6C6F205AEF
:100750002066696E6F20616C6C27616C74657A7AB3
:1007600061206D617373696D612E20436C69636BE9
:1007700020706572207465726D696E6172652E00FD
:1007800043616C696272616E646F205A0043616CF0
:10079000696272617A696F6E65205A2E2052756F98
:1007A00074617265206C61206D616E6F706F6C6139
:1007B0002070657220616C7A61726520696C2063BB
:1007C000617272656C6C6F205A2066696E6F206171
:1007D0006C6C27616C74657A7A61206D61737369E2
:1007E0006D612E20436C69636B20706572207465A7
:1007F000726D696E6172652E0043616C6962722E62
:1008000020636F6D706C6574610043616C69627226
:10081000617A696F6E650053442072696D6F7373FE
:10082000610056657269666963612066696C65007E
:10083000436F6C6F7265206E6F6E207075726F0003
:1008400052616666726564646100436F70696172CB
:1008500065206C61206C696E6775612073656C65DD
:100860007A696F6E6174613F0052696C6576612EC2
:10087000637261736800536365676C6920756E20ED
:1008800066696C616D656E746F20706572206C6155
:100890002063616C696272617A696F6E652064655C
:1008A0006C207072696D6F2073747261746F206553
:1008B0002073656C657A696F6E616C6F206E656C14
:1008C000206D656E752073756C6C6F207363686541
:1008D000726D6F2E0052696C657661746F20696D60
:1008E000706174746F2E0053636F6E74726F207238
:1008F000696C657661746F2E2052697072656E64E2
:10090000657265206C61207374616D70613F004990
:100910006D706174746F0041747475616C6500442E
:100920006174613A00436F6E7472696275697469CB
:10093000004469736162696C697461206D6F746FE2
:1009400072690044697374616E7A61207472612007
:100950006C612070756E74612064656C6C277567BE
:10096000656C6C6F2065206C6120737570657266B4
:10097000696369652064656C207069616E6F206EC3
:100980006F6E20616E636F726120696D706F73743A
:100990006174612E205369207072656761206469FB
:1009A000207365677569726520696C206D616E756D
:1009B000616C652C2063617069746F6C6F2050727C
:1009C000696D692050617373692C2073657A696F52
:1009D0006E652043616C696272617A696F6E652031
:1009E0007072696D6F2073747261746F2E000044B1
:1009F0006573696465726920726970657465726592
:100A0000206C27756C74696D6F20706173736167FA
:100A100067696F20706572206D69676C696F7261BC
:100A20007265206C612064697374616E7A612066FE
:100A30007261207567656C6C6F20652070696174E8
:100A4000746F3F00436F7272657A696F6E652D45F2
:100A50003A00457370656C6C692066696C2E0045C0
:100A60007370656C6C656E646F2066696C616D6532
:100A70006E746F0046696E65632E2066756F7269CD
:100A800020706F72746174610046696E65636F7285
:100A900073610046696E65636F72736100457272BF
:100AA0006F7265202D206C61206D656D6F726961BC
:100AB00020737461746963612065272073746174A5
:100AC0006120736F7672617363726974746100542C
:100AD00061676C69612066696C616D656E746F0039
:100AE0005461676C696174722E005461676C69614E
:100AF0006E646F2066696C616D2E004552524F52D4
:100B0000453A20696C2073656E736F726520666963
:100B10006C616D2E206E6F6E20726973706F6E64E3
:100B2000652C436F6E74726F6C6C61726520636FBD
:100B30006E6E6573732E00536375726F004552526B
:100B40004F52453A0056656E746F6C612065737440
:100B50007275736F72653A00496E666F20657374C3
:100B60007275736F7265004573747275736F726519
:100B700000537461742E66616C6C2E204D4D5500CF
:100B80004175746F6361722E66696C2E00537461D7
:100B9000742E2066616C6C696D656E7469005665B3
:100BA0006C6F636974612076656E742E0054657392
:100BB000742076656E746F6C6100436F6E74726F33
:100BC0006C2E76656E740053656E736F7265206669
:100BD000696C2E0046696C2E2065736175726974AC
:100BE000690046696C616D656E746F20657374721F
:100BF00075736F206520636F6E20636F6C6F726515
:100C000020636F72726574746F3F0046696C2E20AA
:100C10006E6F6E20636172696361746F0053656EFD
:100C2000736F72652066696C616D2E0046696C2E6B
:100C3000207574696C697A7A61746F0054656D709F
:100C40006F206469207374616D706100417A696F0F
:100C50006E652046530046696C6520696E636F6D52
:100C6000706C65746F2E20436F6E74696E7561725F
:100C70006520636F6D756E7175653F0046696E61C5
:100C80006C697A2E2073706F7374616D656E746910
:100C90000043616C2E207072696D6F2073747261F5
:100CA000746F00506572207072696D6F2061767686
:100CB0006965726F206C276175746F746573742039
:100CC00070657220636F6E74726F6C6C61726520F8
:100CD000676C69206572726F726920646920617344
:100CE00073656D626C616767696F207069752063F9
:100CF0006F6D756E692E005269736F6C76657265E3
:100D000020696C2070726F626C656D612065207067
:100D100072656D65726520696C20626F74746F6EA8
:100D2000652073756C6C27756E697461204D4D5527
:100D30002E00466C7573736F0056656E746F6C6130
:100D40002066726F6E74616C653F0046726F6E74E0
:100D500065205B756D5D0056656E746F6C61206615
:100D6000726F6E74616C652F73696E005269736384
:100D7000616C642E2F5465726D6973742E00526914
:100D80007363616C64616D656E746F206665726D0E
:100D900061746F2064616C2074696D657220646990
:100DA000207369637572657A7A612E005269736384
:100DB000616C642E20636F6D706C65746F00526996
:100DC0007363616C64616D656E746F2E2E2E0043CB
:100DD00069616F2C20736F6E6F206C612074756178
:100DE000207374616D70616E7465204F72696769FC
:100DF0006E616C2050727573612069332E204772CA
:100E0000616469726573746920756E2061697574B7
:100E10006F206E656C2070726F636573736F2064F2
:100E20006920636F6E6669677572617A696F6E6556
:100E30003F0043616D6269612066696C616D656E3A
:100E4000746F0043616D62696F20726975736369C5
:100E5000746F210043616D62696F20636F72726508
:100E600074746F3F005665726966696361207069CA
:100E7000616E6F0056657269666963612066696EAE
:100E800065636F727361005665726966696361209C
:100E90007567656C6C6F00436F6E74726F6C6C6F0E
:100EA0002073656E736F7269005665726966696357
:100EB00061206173736520580056657269666963C5
:100EC00061206173736520590056657269666963B4
:100ED000612061737365205A0053656C657A696F90
:100EE0006E61206573747275736F72653A00536337
:100EF00065676C696572652066696C616D656E74A5
:100F00006F3A0046696C616D656E746F004164658F
:100F100073736F206176766965726F20756E6120DC
:100F200043616C696272617A696F6E652058595AC3
:100F30002E2050756F20647572617265206369722E
:100F40006361203132206D696E2E004164657373D8
:100F50006F206176766965726F206C612043616CE9
:100F6000696272617A696F6E65205A2E00536368F8
:100F700065726D61746120696E666F00496E73659C
:100F8000726972652066696C616D656E746F004987
:100F90006C2066696C616D656E746F2065272073C7
:100FA0007461746F20636172696361746F3F005094
:100FB0006961737472612064276163636961696F39
:100FC000207375207069616E6F2072697363616C44
:100FD0006461746F3F004572726F726920756C7442
:100FE000696D61207374616D7061004369616F2C7C
:100FF00020736F6E6F206C61207475612073746153
:101000006D70616E7465204F726967696E616C20E6
:1010100050727573612069332E2054692067756999
:101020006465726F206174747261766572736F208B
:10103000756E2072617069646F2070726F63657382
:10104000736F20696E206375692076657272612006
:1010500063616C69627261746F206C276173736580
:10106000205A2E20506F692C2073617261692070A4
:10107000726F6E746F2061207374616D7061726540
:101080002E00536520686169207069617374726510
:101090002064276163636961696F206167676975AF
:1010A0006E746976652C2063616C69627261206977
:1010B0002070726573657420696E20496D706F735E
:1010C00074617A696F6E69202D2053657475702084
:1010D0004857202D205069617374726520696E2015
:1010E0004163636961696F2E00556C74696D61209D
:1010F0007374616D70610056656E7420535820687A
:101100006F74656E643F0053696E69737472610039
:1011100053696E6973747261205B756D5D00436F16
:101120007272657A696F6E65206C696E6561726551
:1011300000436F6D70656E73617A696F6E65205ADA
:1011400000496E7365726972652066696C616D65D0
:101150006E746F202873656E7A61206361726963B3
:1011600061726C6F29206E656C6C27657374727583
:10117000736F72652065207072656D657265206C95
:1011800061206D616E6F706F6C612E0043617269DA
:1011900063612066696C616D656E746F0043617296
:1011A0006963616E646F20636F6C6F726500436189
:1011B000726963616E646F2066696C616D656E74DF
:1011C0006F0049746572617A696F6E650050756C65
:1011D0006567676961206C656E746100436172695F
:1011E0006361207567656C6C6F004D31313720434A
:1011F000616C6962722E207072696D6F20737472F7
:1012000061746F004D656E75207072696E636970F0
:10121000616C65004C69762E2043686961726F00CD
:101220004C69762E20536375726F004D6973757229
:101230006120616C74657A7A6120646920726966E4
:101240002E2064656C2070756E746F206469206355
:10125000616C69622E004C69762E20677269676C3A
:101260006961207069616E6F004D4D55204F4B2EA6
:101270002072697072656E64656E646F206C6120A7
:10128000706F73697A696F6E652E2E2E004D4D5505
:10129000204F4B2E2052697072697374696E6F20F3
:1012A00074656D70657261747572612E2E2E0044C6
:1012B00065762E206D697375726174610046616C8C
:1012C0006C696D656E7469204D4D5500436172699E
:1012D00063616D2E204D4D552066616C6C69746F95
:1012E00000436172204D4D552066616C6C697469D4
:1012F000004D4D55204F4B2E2052697072656E6423
:10130000656E646F2E2E2E004D6F642E004669723E
:101310006D77617265204D4B332072696C65766123
:10132000746F207375207374616D70616E746520C5
:101330004D4B3353004E6F726D616C650053696C99
:10134000656E7A2E00496C204D4D55207269636898
:101350006965646520617474656E7A696F6E652075
:1013600064616C6C277574656E74652E004D616EDA
:10137000632E20636F72722E204D4D550053696CA1
:10138000656E7A2E004175746F6D617469636F00CC
:10139000466F727465004D4D553220636F6E6E65F9
:1013A000737361004D6F746F7265004D756F766970
:1013B00020617373650053706F737461205800531C
:1013C000706F73746120590053706F737461205A89
:1013D000004E657373756E206D6F76696D656E7402
:1013E0006F2E004E657373756E61205344004E2F4F
:1013F0004400004E6F6E20636F6E6E6573736F00F6
:101400004E756F766120766572732E206669726DF7
:101410007761726520646973706F6E6962696C656B
:101420003A004E6F6E2067697261004164657373A4
:101430006F2063616C6962726F206C6120646973F4
:1014400074616E7A6120667261207567656C6C6F7D
:101450002065207375706572666963652064656CCC
:101460002070696174746F2E0041646573736F201E
:1014700070726572697363616C6465726F206C274A
:101480007567656C6C6F2070657220504C412E0042
:101490005567656C6C6F00536F6E6F207374617469
:1014A000652074726F7661746520696D706F7374F6
:1014B000617A696F6E6920766563636869652E205D
:1014C00056657272616E6E6F20696D706F737461B4
:1014D000746920692076616C6F726920707265642E
:1014E0006566696E697469206469205049442C20DE
:1014F000457374657073206574632E004F726120AC
:1015000072696D756F76657465206C6120737461A6
:101510006D70612064692070726F76612064616C07
:101520006C61207069617374726120696E206163FF
:10153000636961696F2E0056656E742E2065737441
:1015400072004D6574746920696E207061757361F5
:101550000043616C696272617A696F6E65205049FF
:10156000440043616C69622E2050494420636F6DD2
:10157000706C6574610043616C696272617A696F55
:101580006E65205049440052697363616C64616DFB
:10159000656E746F2050494E444100506F73697AF4
:1015A000696F6E61726520756E20666F676C696F1A
:1015B00020736F74746F206C277567656C6C6F2077
:1015C000647572616E7465206C612063616C696220
:1015D00072617A696F6E6520646569207072696DE9
:1015E0006920342070756E74692E20496E20636105
:1015F000736F206C277567656C6C6F206D756F76E7
:101600006120696C20666F676C696F207370656715
:101610006E6572652073756269746F206C612073EA
:1016200074616D70616E74652E0050657220666124
:10163000766F72652070756C6973636920696C20C0
:1016400070696174746F2C20706F69207072656DA1
:1016500069206C61206D616E6F706F6C612E00503F
:10166000756C697265206C277567656C6C6F20708E
:101670006572206C612063616C696272617A696F66
:101680006E652C20706F69206661726520636C69DD
:10169000636B2E0056657269666963613A00506536
:1016A00072206661766F726520636F6E73756C74FD
:1016B0006120696C206E6F7374726F206D616E753E
:1016C000616C6520706572207269736F6C766572EB
:1016D0006520696C2070726F626C656D612E2050A0
:1016E0006F692072697072656E646920696C205739
:1016F000697A61726420646F706F20617665722010
:1017000072696176766961746F206C6120737461AF
:101710006D70616E74652E00417072697265206C27
:10172000612067756964612066696C616D2E206552
:101730002072696D756F7665726520696C206669C7
:101740006C616D2E2061206D616E6F00506572209E
:101750006661766F726520706F73697A696F6E610A
:101760007465206C612070696173747261206427F4
:101770006163636961696F2073756C207069616E64
:101780006F2072697363616C6461746F2E005072B4
:10179000656D657465206C61206D616E6F706F6C36
:1017A0006120706572207363617269636172652084
:1017B000696C2066696C616D656E746F0045737449
:1017C000726172726520696C2066696C616D656E0C
:1017D000746F20696D6D6564696174616D656E74A7
:1017E000650052696D756F766920696C2066696C59
:1017F000616D656E746F2065207175696E64692016
:101800007072656D69206C61206D616E6F706F6CB8
:10181000612E0052696D756F76657465206C61206C
:1018200070696173747261206469206163636961C6
:10183000696F2064616C207069616E6F20726973DA
:1018400063616C6461746F00457365677569206CD2
:10185000612063616C696272617A696F6E6520589C
:10186000595A207072696D612E00416767696F7205
:101870006E6120696C206669726D77617265207394
:10188000756C2074756F204D4D55322E20496E2099
:101890006174746573612064692072657365742E68
:1018A00000417474656E64657265005065722066EF
:1018B00061766F72652072696D756F7665746520EB
:1018C00069206D6174657269616C6920646120735F
:1018D000706564697A696F6E6500507265726973CC
:1018E000632E207567656C6C6F210050726572699C
:1018F0007363616C64610050726572697363616CDB
:1019000064616E646F206C277567656C6C6F2E2048
:10191000417474656E6465726520707265676F2EC0
:1019200000507265676F20616767696F726E6172E0
:10193000652E005072656D657465206C61206D6167
:101940006E6F706F6C612070657220707265726965
:101950007363616C64617265206C277567656C6C7C
:101960006F206520636F6E74696E756172652E00FD
:10197000506175736100496E746572722E20636FD9
:1019800072722E005374616D706120696E7465729D
:10199000726F7474610050726572697363616C6414
:1019A0002E2063617269636F0050726572697363A0
:1019B000616C642E207363617269636F0056656E9B
:1019C000742E7374616D3A005374616D706120649C
:1019D00061205344005072656D657265206C612012
:1019E0006D616E6F706F6C61005374616D7061201A
:1019F000696E207061757361005072656D65746504
:101A0000206C61206D616E6F706F6C61207065720B
:101A10002072656375706572617265206C612074F7
:101A2000656D70657261747572612064656C6C2798
:101A30007567656C6C6F2E005374616D70616E74A8
:101A400065206E6F6E20616E636F72612063616CE2
:101A50006962726174612E205369207072656761DA
:101A6000206469207365677569726520696C206DF3
:101A7000616E75616C652C2063617069746F6C6F49
:101A8000205072696D692050617373692C207365F1
:101A90007A696F6E652053657175656E7A61206431
:101AA000692043616C696272617A696F6E652E00AC
:101AB00056656E742E7374616D7000496E73657235
:101AC0006973636920696C2066696C616D656E7409
:101AD0006F206E656C6C276573747275736F7265B9
:101AE0002C20706F69207072656D69206C61206DAB
:101AF000616E6F706F6C61207065722063617269D6
:101B00006361726C6F2E00506572206661766F7231
:101B10006520696E7365726973636920696C2066FC
:101B2000696C616D656E746F206E656C2070726992
:101B30006D6F207475626F2064656C204D4D552C5F
:101B400020706F69207072656D69206C61206D6115
:101B50006E6F706F6C612070657220636172696373
:101B600061726C6F2E00506572206661766F7265CF
:101B7000207072696D612063617269636120696CB4
:101B80002066696C616D656E746F2E0052657472AB
:101B90006F205B756D5D005363617269636172658F
:101BA000207072696D6120696C2066696C616D6579
:101BB0006E746F2C20706F69207269706574657225
:101BC00065206C276F706572617A696F6E652E0093
:101BD000436F6E74726F6C6C61726520696C206308
:101BE0006F6C6C6567616D656E746F20616C2073DE
:101BF000656E736F726520652072696D756F7665AD
:101C0000726520696C2066696C616D656E746F2EFB
:101C100000526563757065726F207374616D7061D9
:101C20000052696D756F766920696C2066696C6118
:101C30006D656E746F20707265636564656E746542
:101C40002065207072656D69206C61206D616E6F1A
:101C5000706F6C612070657220636172696361727C
:101C60006520696C206E756F766F2066696C616D9A
:101C7000656E746F2E0052657365742063616C69C4
:101C800062722E2058595A2E000052697072656E89
:101C90006469207374616D70610052697072656E61
:101CA0006469207374616D7061004465737472615E
:101CB000205B756D5D00506F727461205250690039
:101CC0005365206176766920696C2057697A617264
:101CD00064207065726465726169206C6120636163
:101CE0006C696272617A696F6E6520707265657386
:101CF000697374656E7465206520646F76726169BE
:101D0000207269636F6D696E6369617265206461D9
:101D10006C6C27696E697A696F2E20436F6E7469E7
:101D20006E756172653F004D656D2E205344004411
:101D300065737472610052696365726361207075C6
:101D40006E74692063616C696272617A696F6E6535
:101D5000207069616E6F0053656C657A696F6E61A2
:101D6000206C696E677561004175746F746573747A
:101D7000204F4B004176766961206175746F746500
:101D80007374004175746F74657374004572726F7B
:101D90007265204175746F746573742100417574A8
:101DA0006F746573742066616C6C69746F0056653E
:101DB000727261206566666574747561746F2075F2
:101DC0006E2073656C662074657374207065722074
:101DD00063616C696272617265206C27686F6D69FE
:101DE0006E672073656E7A612073656E736F7269BA
:101DF0000053656C657A696F6E617465206C612053
:101E000074656D70657261747572612070657220A1
:101E1000696C2070726572697363616C64616D6571
:101E20006E746F2064656C6C277567656C6C6F20D1
:101E300061646174746120616C20766F7374726F79
:101E4000206D6174657269616C652E00496D706FFB
:101E50007374612074656D70657261747572613A36
:101E600000496D706F7374617A696F6E69005374A5
:101E700061746F2066696E65636F72736100416C97
:101E800063756E692066696C65206E6F6E20736184
:101E900072616E6E6F206F7264696E6174692E205C
:101EA000496C206E756D65726F206D617373696D1D
:101EB0006F2064692066696C6520696E20756E61AB
:101EC0002063617274656C6C612065203130302054
:101ED000706572636865207369616E6F206F7264EC
:101EE000696E6174692E004F7264696E61004E659F
:101EF0007373756E6F0043726F6E2E004465766962
:101F0000612E677261766500416C66616265746915
:101F1000004F7264696E616E646F20692066696C3F
:101F20006500466F7274650044657669612E6C6960
:101F30006576650053756F6E6F00457361757269E4
:101F40006D00536F6E6F2073746174692072696CD9
:101F500065766174692070726F626C656D692C20A2
:101F60006176766961746F206C6976656C6C616D01
:101F7000656E746F205A202E2E2E0053696E676F87
:101F80006C6F0056656C6F636974610047697261BC
:101F900000536F6E6F206E656365737361726920A5
:101FA000756E612074656D70657261747572612003
:101FB000616D6269656E74652064692032312D320D
:101FC0003643206520756E61207375706572666991
:101FD000636965207269676964612E005374617476
:101FE0006973746963686500417272657374612016
:101FF0007374616D70610041525245535441544FA6
:102000002E00537570706F72746F005363616D6250
:102010006961746F0053656C657A696F6E612069E0
:102020006C2066696C616D2E3A0043616C69622EAA
:102030002074656D702E0053656C657A696F6E61F2
:10204000206C612074656D706572617475726120B9
:10205000617070726F707269617461207065722056
:10206000696C2074756F206D6174657269616C654F
:102070002E0043616C69622E2054656D702E004302
:10208000616C696272617A696F6E652074656D70EA
:10209000657261747572612066616C6C697461004F
:1020A00043616C696272617A696F6E652074656DF7
:1020B000706572617475726120636F6D706C6574A8
:1020C0006174612065206174746976612E20507599
:1020D0006F206573736572652064697361747469D8
:1020E000766174612064616C206D656E7520496D48
:1020F000706F7374617A696F6E69202D3E43616CF5
:102100002E2054656D702E0053656E736F726520BE
:102110007665726966696361746F2C2072696D758A
:102120006F7665726520696C2066696C616D656E9D
:10213000746F2E0054656D70657261747572610004
:1021400054656D7065726174757265004520616ECD
:10215000636F7261206E65636573736172696F206E
:1021600065666665747475617265206C6120636173
:102170006C696272617A696F6E65205A2E205365B0
:1021800067756920696C206D616E75616C652C20C6
:1021900063617069746F6C6F205072696D69205053
:1021A000617373692C2073657A696F6E652053655E
:1021B0007175656E7A612064692043616C69627231
:1021C000617A696F6E652E0046696C616D656E742B
:1021D0006F20746F74616C650054656D706F20734F
:1021E00074616D706120746F74616C650052656715
:1021F0006F6C6100546F74616C652066616C6C6912
:102200006D656E74690070657220636172696361E7
:10221000726520696C2066696C2E0070657220738F
:1022200063617269636172652066696C2E00536335
:1022300061726963612066696C616D2E0053636130
:10224000726963616E646F2066696C616D656E743E
:102250006F00546F74616C65005573617469206E12
:10226000656C6C61207374616D706100566F6C7485
:10227000616767690073636F6E6F73636975746F0D
:1022800000417474656E64656E646F207574656E6C
:1022900074652E2E2E00496E206174746573612062
:1022A00064656C207261666672656464616D656EFA
:1022B000746F2064656C6C277567656C6C6F206546
:1022C0002064656C207069616E6F00496E206174D6
:1022D000746573612064656C207261666672656402
:1022E00064616D656E746F2064656C6C6120736FE2
:1022F0006E64612050494E444100417474656E7AA9
:10230000696F6E653A207469706F20646920737418
:10231000616D70616E746520652064692073636807
:10232000656461206D616472652063616D626961DD
:1023300074692E0041767669736F3A207469706F04
:1023400020646920736368656461206D61647265EF
:102350002063616D626961746F0041767669736FA5
:102360003A207469706F206469207374616D7061C4
:102370006E74652063616D626961746F2E004669D9
:102380006C616D656E746F207363617269636174F3
:102390006F20636F6E20737563636573736F3F00A7
:1023A0004572726F7265206361626C616767696F05
:1023B000000058595A2043616C2E20646574746182
:1023C000676C690043616C696272617A696F6E65FE
:1023D0002058595A2066616C6C6974612E205369CB
:1023E00020707265676120646920636F6E73756C1D
:1023F0007461726520696C206D616E75616C652E0B
:10240000005369004520706F73736962696C6520C1
:1024100072697072656E6465726520696C205769B7
:102420007A61726420696E207175616C7369617381
:1024300069206D6F6D656E746F2061747472617662
:102440006572736F2043616C696272617A696F6E45
:1024500065202D3E2057697A6172642E0043616CBD
:10246000696272617A696F6E652058595A20636F8C
:102470007272657474612E204C6120646973746F8C
:102480007273696F6E6520766572726120636F6D1D
:1024900070656E73617461206175746F6D617469CC
:1024A00063616D656E74652E0043616C6962726173
:1024B0007A696F6E2058595A20636F72726574740E
:1024C000612E204173736920582F59206C6567670E
:1024D00065726D656E74652073746F7274692E20F9
:1024E00042656E20666174746F210000436F7272E2
:1024F000657A696F6E652D583A0043616C69627246
:10250000617A696F6E652058595A204F4B2E2047CB
:102510006C69206173736920582F5920736F6E6F37
:102520002070657270656E6469636F6C6172692E8C
:1025300020436F6D706C696D656E74692100436135
:102540006C696272617A696F6E652058595A2063AE
:102550006F6D70726F6D657373612E2050756E7440
:102560006920616E746572696F7269206E6F6E208A
:102570007261676769756E676962696C692E00438D
:10258000616C696272617A696F6E652058595A2070
:10259000636F6D70726F6D657373612E2050756E11
:1025A000746F20616E746572696F72652064657303
:1025B00074726F206E6F6E207261676769756E67E7
:1025C0006962696C652E004361726963617265209E
:1025D00074757474690043616C696272617A696FC1
:1025E0006E652058595A2066616C6C6974612E20A2
:1025F000496C2070756E746F2064692063616C692A
:102600006272617A696F6E652073756C20706961A2
:102610006E6F206E6F6E20652720737461746F205B
:1026200074726F7661746F2E0043616C69627261BF
:102630007A696F6E652058595A2066616C6C6974AE
:10264000612E2050756E746920616E746572696FB9
:102650007269206E6F6E207261676769756E676957
:1026600062696C692E0043616C696272617A696F9C
:102670006E652058595A2066616C6C6974612E2011
:1026800050756E746F20616E746572696F7265202B
:1026900064657374726F206E6F6E20726167676914
:1026A000756E676962696C652E0044697374616E4A
:1026B0007A6120592064616C206D696E004C612044
:1026C0007374616D70616E746520696E697A696595
:1026D00072612061207374616D7061726520756E26
:1026E00061206C696E65612061207A69672D7A616D
:1026F000672E2047697261206C61206D616E6F707A
:102700006F6C612066696E6F206120636865206E62
:102710006F6E20686169207261676769756E676FA7
:10272000206C27616C74657A7A61206F7474696DAE
:10273000616C652E20566572696669636120636FFE
:102740006E206C6520696D6D6167696E69206E65CC
:102750006C206D616E75616C6520286361706974B1
:102760006F6C6F2073756C6C612063616C69627251
:10277000617A696F6E65292E0056657269666963B4
:10278000612066616C6C6974612C2072696D756F73
:102790007665726520696C2066696C616D656E7422
:1027A0006F206520726970726F766172652E0043CA
:1027B0006F7272657A696F6E652D593A0000004933
:1027C0006E64696574726F00436F6E74726F6C6CC7
:1027D000690046616C736F20696E6E6573636F008C
:1027E00045736174746F0041767669736F00496D4B
:1027F000706F7374617A696F6E6920485700436F18
:102800006D702E204D61676E65746900477269674F
:102810006C6961004669726D77617265204D4B335A
:10282000532072696C657661746F207375207374C0
:10283000616D70616E7465204D4B33004D6F642E79
:10284000204D4D550043616D62696F206D6F64616D
:102850006C69746120696E20636F72736F2E2E2E07
:10286000004D6F64656C6C6F004469612E5567653F
:102870006C6C6F00472D636F64652070726F6365C9
:10288000737361746F2070657220756E206C697649
:10289000656C6C6F206469766572736F2E20436F70
:1028A0006E74696E756172653F00472D636F646574
:1028B0002070726F6365737361746F20706572202E
:1028C000756E206C6976656C6C6F206469766572D4
:1028D000736F2E20506572206661766F7265206579
:1028E0007365677569206E756F76616D656E746569
:1028F000206C6F20736C6963652064656C206D6F5C
:1029000064656C6C6F2E205374616D706120616E14
:102910006E756C6C6174612E00472D636F64652069
:1029200070726F6365737361746F20706572207568
:102930006E61207374616D70616E74652064697678
:10294000657273612E20436F6E74696E7561726576
:102950003F00472D636F64652070726F636573730A
:1029600061746F2070657220756E61207374616D83
:1029700070616E746520646976657273612E205093
:102980006572206661766F7265206573656775692B
:10299000206E756F76616D656E7465206C6F207347
:1029A0006C6963652064656C206D6F64656C6C6F29
:1029B0002E205374616D706120616E6E756C6C6158
:1029C00074612E00472D636F64652070726F6365BC
:1029D000737361746F2070657220756E2066697202
:1029E0006D776172652070697520726563656E74BC
:1029F000652E20436F6E74696E756172653F004786
:102A00002D636F64652070726F6365737361746F9B
:102A10002070657220756E206669726D77617265CF
:102A20002070697520726563656E74652E2050652F
:102A300072206661766F726520616767696F726E7A
:102A40006120696C206669726D776172652E205312
:102A500074616D706120616E6E756C6C6174612E55
:102A60000050726572697363616C64612E207461D9
:102A7000676C696F0050726572697363616C646141
:102A80002E20657370756C732E004469616D6574DA
:102A9000726F207567656C6C6F2064697665727300
:102AA0006F20646120472D436F64652E20436F6E55
:102AB00074696E756172653F004469616D65747219
:102AC0006F207567656C6C6F206469766572736FD3
:102AD0002064616C20472D436F64652E20436F6E28
:102AE00074726F6C6C6120696C2076616C6F7265BA
:102AF000206E656C6C6520696D706F7374617A69A6
:102B00006F6E692E205374616D706120616E6E75F9
:102B10006C6C6174612E0061747465736F206C69F4
:102B200076656C6C6F2025730052696E6F6D696EEF
:102B3000610053656C657A696F6E6100496E666FFE
:102B40002053656E736F7265005069616E6F00414E
:102B500073736973742E005069616E692064276114
:102B600063636961696F00436F7272657A696F6E42
:102B7000652D5A3A004E722E205A2D7465737400DA
:102B8000496E642E204950207374616D70616E74BB
:102B9000653A007A656E207A756D20417573777598
:102BA0007266004465722044757263686D65737364
:102BB00065722064657220447275636B657264751A
:102BC0006573652077656963687420766F6D20474B
:102BD0002D436F64652061622E20466F72746661BA
:102BE0006872656E3F004465722044757263686D5B
:102BF00065737365722064657220447275636B65DA
:102C00007264756573652077656963687420766F93
:102C10006D20472D436F64652061622E20426974E8
:102C200074652075656265727072756566656E2083
:102C30005369652064656E205765727420696E2043
:102C400064656E2045696E7374656C6C756E67653E
:102C50006E2E20447275636B206162676562726FCD
:102C60006368656E2E002573204C6576656C206563
:102C70007277617274657400556D62656E656E6E13
:102C8000656E004175737761686C0053656E736F94
:102C90007220496E666F00537461686C626C656384
:102CA00068004173736973742E00537461686C62B9
:102CB0006C65636865005A2D4B6F7272656B747535
:102CC000723A005A2D54657374204E722E0044726D
:102CD00075636B6572204950204164722E3A000082
:102CE00000000000000000000000000000000000E4
:102CF00000000000000000000000000000000000D4
:102D000000000000000000000000000000000000C3
:102D100000000000000000000000000000000000B3
:10310000FFFF526573756D696E67207072696E742A
:1031100000FFFF50494E44412048656174696E6765
:1031200000FFFF43616C6962726174696F6E2064B5
:103130006F6E6500FFFF43616C6962726174696E56
:1031400067205A00FFFF42656420646F6E6500FFD0
:10315000FF4265642048656174696E6700FFFF483F
:10316000656174696E6720646F6E652E00FFFF48AD
:10317000656174696E6700FFFF4D31313720466924
:10318000727374206C617965722063616C2E00FF2C
:10319000FF5049442063616C2E2066696E69736834
:1031A000656400FFFF5049442063616C2E00FFFFFF
:1031B0005072696E742070617573656400FFFF5012
:1031C00072696E742046414E00FFFF4E6F7A7A6C32
:1031D000652046414E00FFFF4D4D55206661696CEC
:1031E0007300FFFF4D4D55206C6F6164206661696F
:1031F0006C7300FFFF4D4D5520706F776572206630
:1032000061696C7300FFFF546F74616C20666169C3
:103210006C7572657300FFFF46696C2E2072756EC7
:103220006F75747300FFFF4C617374207072696E68
:1032300074206661696C7572657300FFFF506F776B
:103240006572206661696C7572657300FFFF527567
:103250006E6F75747300FFFF437261736800FFFF48
:10326000546F74616C00FFFF4C617374207072695D
:103270006E7400FFFF416D6269656E7400FFFF446C
:10328000756D70206D656D6F727900FFFF566F6C04
:10329000746167657300FFFF54656D7065726174DA
:1032A0007572657300FFFF42656C742073746174FE
:1032B000757300FFFF53656E736F7220696E666FE2
:1032C00000FFFF457874727564657220696E666FE1
:1032D00000FFFF58595A2063616C2E2064657461A9
:1032E000696C7300FFFF756E6B6E6F776E00FFFF8A
:1032F0004D4D553220636F6E6E656374656400FFDB
:10330000FF446174653A00FFFF746F20756E6C6F47
:1033100061642066696C616D656E7400FFFF746F97
:10332000206C6F61642066696C616D656E7400FF6E
:10333000FF507265737320746865206B6E6F620056
:10334000FFFF50726568656174696E6720746F2055
:1033500063757400FFFF50726568656174696E671C
:1033600020746F20656A65637400FFFF50726568A2
:10337000656174696E6720746F20756E6C6F61642F
:1033800000FFFF50726568656174696E6720746F35
:10339000206C6F616400FFFF436F6F6C646F776E2A
:1033A00000FFFF5072656865617420746865206E67
:1033B0006F7A7A6C652100FFFF4552524F523A00F6
:1033C000FFFF46696C616D656E7420657874727577
:1033D00064696E672026207769746820636F727253
:1033E00065637420636F6C6F723F00FFFF417574FB
:1033F0006F6C6F6164696E672066696C616D656E84
:1034000074206973206163746976652C206A757312
:103410007420707265737320746865206B6E6F62C0
:1034200020616E6420696E736572742066696C61D8
:103430006D656E742E2E2E00FFFF546F74616C202C
:1034400066696C616D656E7400FFFF546F74616C2A
:10345000207072696E742074696D6500FFFF4669A3
:103460006C616D656E74207573656400FFFF50724A
:10347000696E742074696D6500FFFF59206469737B
:1034800074616E63652066726F6D206D696E00FFFA
:10349000FF4C65667400FFFF526967687400FFFFA8
:1034A0004D6561737572656420736B657700FFFF0E
:1034B000536C6967687420736B657700FFFF536511
:1034C0007665726520736B657700FFFF5B303B307C
:1034D0005D20706F696E74206F666673657400FF9F
:1034E000FF41646A757374696E67205A3A00FFFF82
:1034F000526561722073696465205B756D5D00FFC4
:10350000FF46726F6E7420736964655B756D5D0054
:10351000FFFF526967687420736964655B756D5D50
:1035200000FFFF4C6566742073696465205B756DF0
:103530005D00FFFF5365742074656D706572617482
:103540007572653A00FFFF54656D70657261747540
:1035500072652063616C6962726174696F6E206666
:1035600061696C656400FFFF54656D70657261741C
:103570007572652063616C6962726174696F6E2037
:1035800069732066696E697368656420616E642082
:103590006163746976652E2054656D702E206361B9
:1035A0006C6962726174696F6E2063616E2062651E
:1035B0002064697361626C656420696E206D656E5C
:1035C000752053657474696E67732D3E54656D7014
:1035D0002E2063616C2E00FFFF46696C2E20736500
:1035E0006E736F7200FFFF457874727564657200C8
:1035F000FFFF4D6F7665205A00FFFF4D6F76652007
:103600005900FFFF4D6F7665205800FFFF43726140
:10361000736820646574656374696F6E2063616E9E
:103620000A6265207475726E6564206F6E206F6E1D
:103630006C7920696E0A4E6F726D616C206D6F64DB
:103640006500FFFF5741524E494E473A0A437261A7
:10365000736820646574656374696F6E0A64697366
:1036600061626C656420696E0A537465616C74688C
:10367000206D6F646500FFFF4175746F6C6F61644E
:10368000696E672066696C616D656E742061766134
:10369000696C61626C65206F6E6C79207768656E0D
:1036A0002066696C616D656E742073656E736F72F0
:1036B000206973207475726E6564206F6E2E2E2ED5
:1036C00000FFFF4552524F523A2046696C616D65CA
:1036D0006E742073656E736F72206973206E6F74E1
:1036E00020726573706F6E64696E672C20706C65F4
:1036F00061736520636865636B20636F6E6E6563DD
:1037000074696F6E2E00FFFF4D6F64652063686102
:103710006E676520696E2070726F67726573732EB5
:103720002E2E00FFFF436F70792073656C65637404
:103730006564206C616E67756167653F00FFFF53CC
:10374000656C656374206C616E677561676500FF09
:10375000FF436F6D6D756E697479206D61646500EE
:10376000FFFF43616C69627261746500FFFF53681B
:1037700065657420252E37730A5A206F6666736557
:10378000743A20252B312E3366206D6D0A25634354
:103790006F6E74696E75650A256353746172742067
:1037A00066726F6D207A65726F00FFFF506C656105
:1037B0007365206C6F61642066696C616D656E7401
:1037C0002066697273742E00FFFF53656C65637425
:1037D0002066696C616D656E743A00FFFF46696C26
:1037E000616D656E7400FFFF3E43616E63656C0042
:1037F000FFFF52756E6E696E672057697A61726459
:103800002077696C6C2064656C65746520637572E3
:1038100072656E742063616C6962726174696F6E47
:1038200020726573756C747320616E6420737461AB
:1038300072742066726F6D207468652062656769B6
:103840006E6E696E672E20436F6E74696E75653F8C
:1038500000FFFF50726568656174696E67206E6F66
:103860007A7A6C652E20506C65617365207761698A
:10387000742E00FFFF4C6F6164696E672066696C8F
:10388000616D656E7400FFFF506C65617365206942
:103890006E736572742066696C616D656E74206903
:1038A0006E746F20746865206578747275646572D3
:1038B0002C207468656E207072657373207468655F
:1038C000206B6E6F6220746F206C6F61642069746E
:1038D0002E00FFFF506C6561736520696E73657221
:1038E000742066696C616D656E7420696E746F20FA
:1038F0007468652066697273742074756265206FE0
:103900006620746865204D4D552C207468656E20C6
:10391000707265737320746865206B6E6F622074BB
:103920006F206C6F61642069742E00FFFF5468651E
:10393000207072696E7465722077696C6C20737484
:10394000617274207072696E74696E672061207A8A
:1039500069672D7A6167206C696E652E20526F74DD
:1039600061746520746865206B6E6F6220756E747B
:10397000696C20796F752072656163682074686571
:10398000206F7074696D616C206865696768742E5A
:1039900020436865636B2074686520706963747583
:1039A00072657320696E207468652068616E646258
:1039B0006F6F6B202843616C6962726174696F6E0E
:1039C0002063686170746572292E00FFFF53656C77
:1039D0006563742074656D706572617475726520BD
:1039E0007768696368206D61746368657320796FB7
:1039F0007572206D6174657269616C2E00FFFF4302
:103A0000686F6F736520612066696C616D656E74A7
:103A100020666F7220746865204669727374204C4A
:103A2000617965722043616C6962726174696F6E5D
:103A300020616E642073656C65637420697420690D
:103A40006E20746865206F6E2D73637265656E20DD
:103A50006D656E752E00FFFF4E6F772049207769E8
:103A60006C6C2063616C6962726174652064697357
:103A700074616E6365206265747765656E20746934
:103A800070206F6620746865206E6F7A7A6C65208E
:103A9000616E642068656174626564207375726626
:103AA0006163652E00FFFF596F752063616E2061B1
:103AB0006C7761797320726573756D6520746865C4
:103AC0002057697A6172642066726F6D2043616C61
:103AD0006962726174696F6E202D3E2057697A6148
:103AE00072642E00FFFF506C65617365206368652A
:103AF000636B206F75722068616E64626F6F6B20FC
:103B0000616E6420666978207468652070726F62E7
:103B10006C656D2E205468656E20726573756D65D9
:103B2000207468652057697A617264206279207216
:103B300065626F6F74696E67207468652070726962
:103B40006E7465722E00FFFF416C6C2069732064F7
:103B50006F6E652E204861707079207072696E7486
:103B6000696E672100FFFF496620796F75206861E3
:103B70007665206164646974696F6E616C2073742A
:103B800065656C207368656574732C2063616C696E
:103B90006272617465207468656972207072657301
:103BA00065747320696E2053657474696E67732041
:103BB0002D204857205365747570202D205374654F
:103BC000656C207368656574732E00FFFF506C652B
:103BD00061736520636C65616E2068656174626500
:103BE0006420616E64207468656E20707265737302
:103BF00020746865206B6E6F622E00FFFF446F209B
:103C0000796F752077616E7420746F2072657065AE
:103C10006174206C617374207374657020746F20FC
:103C2000726561646A7573742064697374616E632C
:103C300065206265747765656E206E6F7A7A6C6553
:103C400020616E6420686561746265643F00FFFFF7
:103C500053656C656374206E6F7A7A6C6520707240
:103C600065686561742074656D70657261747572E4
:103C700065207768696368206D6174636865732087
:103C8000796F7572206D6174657269616C2E00FFC9
:103C9000FF49732066696C616D656E74206C6F619D
:103CA0006465643F00FFFF4E6F7720492077696CA1
:103CB0006C2070726568656174206E6F7A7A6C65CD
:103CC00020666F7220504C412E00FFFF492077691B
:103CD0006C6C2072756E207A2063616C696272610F
:103CE00074696F6E206E6F772E00FFFF4E6F772026
:103CF00072656D6F766520746865207465737420D5
:103D00007072696E742066726F6D20737465656C75
:103D10002073686565742E00FFFF506C65617365E4
:103D20002072656D6F7665207368697070696E6763
:103D30002068656C706572732066697273742E00FA
:103D4000FFFF492077696C6C2072756E2078797A54
:103D50002063616C6962726174696F6E206E6F7747
:103D60002E2049742077696C6C2074616B6520612A
:103D70007070726F782E203132206D696E732E0054
:103D8000FFFF46697273742C20492077696C6C20A0
:103D900072756E207468652073656C6674657374E3
:103DA00020746F20636865636B206D6F737420638C
:103DB0006F6D6D6F6E20617373656D626C792070CD
:103DC000726F626C656D732E00FFFF48692C20498D
:103DD00020616D20796F7572204F726967696E611D
:103DE0006C205072757361206933207072696E7433
:103DF00065722E20576F756C6420796F75206C6921
:103E00006B65206D6520746F206775696465207926
:103E10006F75207468726F756768207468652073A9
:103E2000657475702070726F636573733F00FFFF78
:103E300048692C204920616D20796F7572204F727E
:103E40006967696E616C20507275736120693320F7
:103E50007072696E7465722E20492077696C6C20CF
:103E6000677569646520796F75207468726F75670E
:103E70006820612073686F72742073657475702098
:103E800070726F636573732C20696E207768696345
:103E90006820746865205A2D617869732077696C91
:103EA0006C2062652063616C696272617465642E66
:103EB000205468656E2C20796F752077696C6C20B2
:103EC000626520726561647920746F207072696E1A
:103ED000742E00FFFF452D636F72726563743A00A4
:103EE000FFFF5A2D636F72726563743A00FFFF59CA
:103EF0002D636F72726563743A00FFFF582D636F14
:103F000072726563743A00FFFF43757474657200E2
:103F1000FFFF4D6F64656C00FFFF5374726963743B
:103F200000FFFF5761726E00FFFF436865636B73AC
:103F300000FFFF4E6F7A7A6C6520642E00FFFF4E03
:103F40006F6E6500FFFF416C70686162657400FF11
:103F5000FF536F727400FFFF54696D6500FFFF53DC
:103F600044206361726400FFFF53656C65637420D5
:103F70006C616E677561676500FFFF525069207064
:103F80006F727400FFFF54656D702E2063616C2E9C
:103F900000FFFF4C696E2E20636F72726563746957
:103FA0006F6E00FFFF485720536574757000FFFF68
:103FB000462E206175746F6C6F616400FFFF446969
:103FC0007361626C6520737465707065727300FF55
:103FD000FF4D6F7665206178697300FFFF54656D52
:103FE000706572617475726500FFFF54656D702EA7
:103FF0002063616C6962726174696F6E00FFFF52C9
:10400000657365742058595A2063616C6962722E19
:1040100000FFFF5049442063616C696272617469FA
:104020006F6E00FFFF426564206C6576656C2063EF
:104030006F727265637400FFFF4D6573682042659F
:1040400064204C6576656C696E6700FFFF43616CA8
:10405000696272617465205A00FFFF43616C696296
:10406000726174652058595A00FFFF53656C66747D
:1040700065737400FFFF42656C742074657374008F
:10408000FFFF57697A61726400FFFF4C6F61642023
:10409000616C6C00FFFF506C656173652070756C1E
:1040A0006C206F75742066696C616D656E74206933
:1040B0006D6D6564696174656C7900FFFF556E6CA8
:1040C0006F6164696E672066696C616D656E74000E
:1040D000FFFF526573657400FFFF52656E616D6589
:1040E00000FFFF4669727374206C6179657220630A
:1040F000616C2E00FFFF53656C65637400FFFF5316
:104100007465656C2073686565747300FFFF537593
:1041100070706F727400FFFF4661696C2073746188
:104120007473204D4D5500FFFF4661696C20737418
:1041300061747300FFFF537461746973746963730E
:1041400000FFFF43616C6962726174696F6E00FF0A
:10415000FF4175746F4C6F61642066696C616D65B9
:104160006E7400FFFF4375742066696C616D656E47
:104170007400FFFF456A6563742066696C616D6554
:104180006E7400FFFF556E6C6F61642066696C6130
:104190006D656E7400FFFF4C6F616420746F206E5C
:1041A0006F7A7A6C6500FFFF4C6F61642066696C02
:1041B000616D656E7400FFFF4E6F20534420636194
:1041C000726400FFFF5072696E742066726F6D201A
:1041D000534400FFFF526573756D65207072696E00
:1041E0007400FFFF5061757365207072696E740012
:1041F000FFFF54756E6500FFFF507265686561745E
:1042000000FFFF4C6976652061646A757374205AFB
:1042100000FFFF496E666F2073637265656E00FF75
:10422000FF46696E697368696E67206D6F76656DAC
:10423000656E747300FFFF4272696768746E657320
:104240007300FFFF41737369737400FFFF53696C60
:10425000656E7400FFFF4F6E636500FFFF536F755F
:104260006E6400FFFF4C6F756400FFFF4D4D5520DD
:104270004D6F646500FFFF4372617368206465746D
:104280002E00FFFF537465616C746800FFFF4E6F72
:10429000726D616C00FFFF46616E73206368656339
:1042A0006B00FFFF46696C2E2073656E736F7200A2
:1042B000FFFF4368616E67652066696C616D656EBE
:1042C0007400FFFF466C6F7700FFFF5370656564F5
:1042D00000FFFF4D61676E65747320636F6D702E14
:1042E00000FFFF4E2F4100FFFF5A2D70726F626575
:1042F000206E722E00FFFF4D65736800FFFF54694A
:104300006D656F757400FFFF4D6F646500FFFF41C1
:1043100075746F00FFFF44696D00FFFF42726967AB
:10432000687400FFFF4C6576656C2044696D6D65AF
:104330006400FFFF4C6576656C20427269676874A3
:1043400000FFFF46616E20737065656400FFFF42E9
:10435000656400FFFF4E6F7A7A6C6500FFFF53655E
:104360007474696E677300FFFF5072696E74206128
:10437000626F7274656400FFFF53746F7020707217
:10438000696E7400FFFF436865636B696E67206642
:10439000696C6500FFFF46696C6520696E636F6D2F
:1043A000706C6574652E20436F6E74696E75652040
:1043B000616E797761793F00FFFF0452656672652F
:1043C000736800FFFF4D61696E00FFFF57616974FC
:1043D000696E6720666F72206E6F7A7A6C652061F5
:1043E0006E642062656420636F6F6C696E6700FFA6
:1043F000FF53656C662074657374204F4B00FFFF9C
:1044000053656C66207465737420737461727400F4
:10441000FFFF5072696E742066616E3A00FFFF45BF
:10442000787472756465722066616E3A00FFFF43AE
:10443000616C6962726174696E6720686F6D650096
:10444000FFFF416C6C20636F727265637400FFFF45
:10445000436865636B696E672073656E736F727313
:1044600000FFFF436865636B696E6720686F746562
:104470006E6400FFFF436865636B696E6720626569
:104480006400FFFF436865636B696E67205A2061B3
:1044900078697300FFFF436865636B696E67205935
:1044A000206178697300FFFF436865636B696E671D
:1044B0002058206178697300FFFF436865636B696A
:1044C0006E6720656E6473746F707300FFFF4361E5
:1044D00072642072656D6F76656400FFFF4F6666DB
:1044E00000FFFF4F6E00FFFF4261636B00FFFF5054
:1044F00072696E746572206E6F7A7A6C6520646979
:10450000616D6574657220646966666572732066A4
:10451000726F6D2074686520472D636F64652E206F
:10452000506C6561736520636865636B20746865B2
:104530002076616C756520696E2073657474696E90
:1045400067732E205072696E742063616E63656CB0
:104550006C65642E00FFFF5072696E746572206E88
:104560006F7A7A6C65206469616D65746572206428
:104570006966666572732066726F6D207468652067
:10458000472D636F64652E20436F6E74696E756589
:104590003F00FFFF4D4B33206669726D7761726596
:1045A000206465746563746564206F6E204D4B33C1
:1045B00053207072696E74657200FFFF4657206366
:1045C0007261736820646574656374656421205941
:1045D0006F752063616E20636F6E74696E75652000
:1045E0007072696E74696E672E204465627567200B
:1045F0006461746120617661696C61626C652066DA
:104600006F7220616E616C797369732E20436F6ED7
:104610007461637420737570706F727420746F208E
:104620007375626D69742064657461696C732E00C2
:10463000FFFF426C61636B6F7574206F636375720B
:104640007265642E205265636F76657220707269A0
:104650006E743F00FFFF53656C667465737420775A
:10466000696C6C2062652072756E20746F206361C6
:104670006C696272617465206163637572617465EF
:104680002073656E736F726C657373207265686FEB
:104690006D696E672E00FFFF54686572652069734F
:1046A000207374696C6C2061206E65656420746F82
:1046B000206D616B65205A2063616C696272617460
:1046C000696F6E2E20506C6561736520666F6C6C2F
:1046D0006F7720746865206D616E75616C2C206346
:1046E00068617074657220466972737420737465B2
:1046F00070732C2073656374696F6E2043616C69FD
:1047000062726174696F6E20666C6F772E00FFFFB6
:104710005072696E74657220686173206E6F7420C8
:104720006265656E2063616C6962726174656420A4
:104730007965742E20506C6561736520666F6C6CB2
:104740006F7720746865206D616E75616C2C2063D5
:104750006861707465722046697273742073746541
:1047600070732C2073656374696F6E2043616C698C
:1047700062726174696F6E20666C6F772E00FFFF46
:104780004F6C642073657474696E677320666F750F
:104790006E642E2044656661756C74205049442C0B
:1047A00020457374657073206574632E2077696C7F
:1047B0006C206265207365742E00FFFF5761726E76
:1047C000696E673A20626F7468207072696E7465F2
:1047D00072207479706520616E64206D6F746865F5
:1047E00072626F6172642074797065206368616EB3
:1047F0006765642E00FFFF5761726E696E673A202D
:104800007072696E74657220747970652063686176
:104810006E6765642E00FFFF5761726E696E673ABE
:10482000206D6F74686572626F6172642074797054
:1048300065206368616E6765642E00FFFF437261E7
:1048400073682064657465637465642E00FFFF53AC
:104850006F6D652070726F626C656D20656E636F41
:10486000756E74657265642C205A2D6C6576656C66
:10487000696E6720656E666F72636564202E2E2EEA
:1048800000FFFF472D636F646520736C6963656487
:1048900020666F72206120646966666572656E7459
:1048A000206C6576656C2E20436F6E74696E75653D
:1048B0003F00FFFF472D636F646520736C6963657C
:1048C0006420666F72206120646966666572656E39
:1048D00074206C6576656C2E20506C656173652064
:1048E00072652D736C69636520746865206D6F64F3
:1048F000656C20616761696E2E205072696E74204C
:1049000063616E63656C6C65642E00FFFF472D6309
:104910006F646520736C6963656420666F722061E3
:10492000206E65776572206669726D776172652E9B
:1049300020506C65617365207570646174652074C6
:104940006865206669726D776172652E20507269A4
:104950006E742063616E63656C6C65642E00FFFF8E
:10496000472D636F646520736C6963656420666FAF
:10497000722061206E65776572206669726D77615D
:1049800072652E20436F6E74696E75653F00FFFF80
:10499000472D636F646520736C6963656420666F7F
:1049A00072206120646966666572656E742070723B
:1049B000696E74657220747970652E20436F6E7411
:1049C000696E75653F00FFFF472D636F6465207357
:1049D0006C6963656420666F722061206469666635
:1049E0006572656E74207072696E74657220747978
:1049F00070652E20506C656173652072652D736C37
:104A000069636520746865206D6F64656C206167FB
:104A100061696E2E205072696E742063616E6365E9
:104A20006C6C65642E00FFFF5072657373207468B0
:104A300065206B6E6F6220746F20707265686561AF
:104A400074206E6F7A7A6C6520616E6420636F6E7D
:104A500074696E75652E00FFFF506C65617365208B
:104A6000707265737320746865206B6E6F6220745A
:104A70006F20756E6C6F61642066696C616D656E28
:104A80007400FFFF52656D6F7665206F6C64206661
:104A9000696C616D656E7420616E642070726573FF
:104AA0007320746865206B6E6F6220746F2073745E
:104AB000617274206C6F6164696E67206E65772027
:104AC00066696C616D656E742E00FFFF616E642017
:104AD000707265737320746865206B6E6F6200FF7F
:104AE000FF496E736572742066696C616D656E74E2
:104AF00000FFFF436F6C6F72206E6F7420636F72E4
:104B00007265637400FFFF46696C616D656E7420A9
:104B10006E6F74206C6F6164656400FFFF436861B1
:104B20006E67656420636F72726563746C793F00B1
:104B3000FFFF4C6F6164696E6720636F6C6F72007A
:104B4000FFFF4368616E6765207375636365737308
:104B50002100FFFF506C65617365206F70656E20EA
:104B600069646C657220616E642072656D6F766534
:104B70002066696C616D656E74206D616E75616C27
:104B80006C792E00FFFF5761732066696C616D655B
:104B90006E7420756E6C6F616420737563636573EA
:104BA0007366756C3F00FFFF506C6561736520751F
:104BB0007067726164652E00FFFF4E65772066693D
:104BC000726D776172652076657273696F6E2061B0
:104BD0007661696C61626C653A00FFFF57616974C8
:104BE000696E6720666F722050494E444120707292
:104BF0006F626520636F6F6C696E6700FFFF4368CB
:104C00006F6F73652065787472756465723A00FF22
:104C1000FF43686F6F73652066696C616D656E74C4
:104C20003A00FFFF4E6F206D6F76652E00FFFF5339
:104C30007461626C6520616D6269656E7420746573
:104C40006D70657261747572652032312D32364334
:104C5000206973206E6565646564206120726967F0
:104C60006964207374616E64206973207265717564
:104C7000697265642E00FFFF506C65617365207278
:104C8000756E2058595A2063616C6962726174694B
:104C90006F6E2066697273742E00FFFF576169742E
:104CA00020666F7220757365722E2E2E00FFFF48EE
:104CB000656174696E672064697361626C65642004
:104CC0006279207361666574792074696D65722EEE
:104CD00000FFFF5265636F766572696E67207072C0
:104CE000696E7400FFFF506C6561736520776169C0
:104CF0007400FFFF53544F505045442E00FFFF42B5
:104D00006564206C6576656C696E67206661696CA8
:104D100065642E2053656E736F72206469646E271C
:104D20007420747269676765722E204465627269C7
:104D300073206F6E206E6F7A7A6C653F20576169C1
:104D400074696E6720666F722072657365742E00D9
:104D5000FFFF506C65617365207570646174652038
:104D60006669726D7761726520696E20796F757200
:104D7000204D4D55322E2057616974696E6720664B
:104D80006F722072657365742E00FFFF4D4D5520C4
:104D90004F4B2E20526573756D696E672E2E2E0057
:104DA000FFFF4D4D55204F4B2E20526573756D6999
:104DB0006E6720706F736974696F6E2E2E2E00FF00
:104DC000FF4D4D55204F4B2E20526573756D696E0A
:104DD000672074656D70657261747572652E2E2E14
:104DE00000FFFF46697820746865206973737565F4
:104DF00020616E64207468656E2070726573732024
:104E0000627574746F6E206F6E204D4D5520756EF7
:104E100069742E00FFFF50726573732074686520FB
:104E20006B6E6F6220746F20726573756D65206E96
:104E30006F7A7A6C652074656D70657261747572D5
:104E4000652E00FFFF4D4D55206E6565647320751E
:104E500073657220617474656E74696F6E2E00FFE5
:104E6000FF43757474696E672066696C616D656E69
:104E70007400FFFF506C656173652072656D6F761D
:104E8000652066696C616D656E7420616E64207466
:104E900068656E20707265737320746865206B6E30
:104EA0006F622E00FFFF456A656374696E67206656
:104EB000696C616D656E7400FFFF4D4D55206C6F20
:104EC0006164206661696C656400FFFF5368656515
:104ED0007400FFFF59657300FFFF4E6F00FFFF4E28
:104EE0006F74207370696E6E696E6700FFFF537098
:104EF000696E6E696E6700FFFF46616E20746573B0
:104F00007400FFFF53656C66746573742066616995
:104F10006C656400FFFF46616C736520747269679D
:104F2000676572696E6700FFFF46696C616D656E4B
:104F3000742073656E736F7200FFFF53776170703A
:104F4000656400FFFF46726F6E742F6C6566742097
:104F500066616E7300FFFF4178697300FFFF41785F
:104F60006973206C656E67746800FFFF4C6F6F7328
:104F7000652070756C6C657900FFFF4C6566742068
:104F8000686F74656E642066616E3F00FFFF467255
:104F90006F6E74207072696E742066616E3F00FFE0
:104FA000FF456E6473746F70206E6F74206869744F
:104FB00000FFFF456E6473746F7000FFFF4D6F74E8
:104FC0006F7200FFFF456E6473746F707300FFFFB4
:104FD000576972696E67206572726F7200FFFF42D7
:104FE00065642F48656174657200FFFF4E6F742021
:104FF000636F6E6E656374656400FFFF486561747E
:1050000065722F546865726D6973746F7200FFFF6B
:10501000506C6561736520636865636B3A00FFFFE0
:1050200053656C6674657374206572726F722100CB
:10503000FFFF58595A2063616C6962726174696F2D
:105040006E20616C6C2072696768742E20536B65EA
:10505000772077696C6C20626520636F727265637C
:10506000746564206175746F6D61746963616C6CE3
:10507000792E00FFFF58595A2063616C6962726192
:1050800074696F6E20616C6C2072696768742E2081
:10509000582F5920617865732061726520736C699F
:1050A0006768746C7920736B657765642E20476F31
:1050B0006F64206A6F622100FFFF58595A206361B4
:1050C0006C6962726174696F6E206F6B2E20582F4D
:1050D0005920617865732061726520706572706512
:1050E0006E646963756C61722E20436F6E677261C6
:1050F00074756C6174696F6E732100FFFF58595AA3
:105100002063616C6962726174696F6E20636F6D98
:1051100070726F6D697365642E20526967687420C0
:1051200066726F6E742063616C6962726174696F1C
:105130006E20706F696E74206E6F7420726561638B
:105140006861626C652E00FFFF58595A2063616CDC
:105150006962726174696F6E20636F6D70726F6DDA
:10516000697365642E2046726F6E742063616C698A
:1051700062726174696F6E20706F696E7473206EF5
:105180006F7420726561636861626C652E00FFFF59
:1051900058595A2063616C6962726174696F6E203C
:1051A0006661696C65642E20526967687420667256
:1051B0006F6E742063616C6962726174696F6E20D6
:1051C000706F696E74206E6F7420726561636861C0
:1051D000626C652E00FFFF58595A2063616C69624A
:1051E000726174696F6E206661696C65642E204619
:1051F000726F6E742063616C6962726174696F6E44
:1052000020706F696E7473206E6F742072656163B5
:105210006861626C652E00FFFF58595A2063616C0B
:105220006962726174696F6E206661696C65642E73
:1052300020506C6561736520636F6E73756C7420AC
:10524000746865206D616E75616C2E00FFFF5859A2
:105250005A2063616C6962726174696F6E20666165
:10526000696C65642E204265642063616C696272BA
:105270006174696F6E20706F696E7420776173203E
:105280006E6F7420666F756E642E00FFFF506C6544
:1052900061736520706C61636520737465656C2053
:1052A0007368656574206F6E2068656174626564FB
:1052B0002E00FFFF44697374616E6365206265743C
:1052C0007765656E20746970206F6620746865204C
:1052D0006E6F7A7A6C6520616E64207468652062F6
:1052E0006564207375726661636520686173206E02
:1052F0006F74206265656E20736574207965742E05
:1053000020506C6561736520666F6C6C6F772074DC
:105310006865206D616E75616C2C206368617074C6
:1053200065722046697273742073746570732C20E3
:1053300073656374696F6E204669727374206C6163
:105340007965722063616C6962726174696F6E2E37
:1053500000FFFF506C6163652061207368656574B0
:10536000206F6620706170657220756E64657220B2
:10537000746865206E6F7A7A6C6520647572696EE8
:1053800067207468652063616C6962726174696F1B
:105390006E206F66206669727374203420706F69A6
:1053A0006E74732E20496620746865206E6F7A7A59
:1053B0006C65206361746368657320746865207030
:1053C000617065722C20706F776572206F66662041
:1053D000746865207072696E74657220696D6D65A0
:1053E00064696174656C792E00FFFF506C656173B0
:1053F000652072656D6F766520737465656C2073CA
:10540000686565742066726F6D2068656174626599
:10541000642E00FFFF497320737465656C20736808
:10542000656574206F6E20686561746265643F0015
:10543000FFFF536561726368696E6720626564206F
:1054400063616C6962726174696F6E20706F696EFE
:105450007400FFFF4D6561737572696E6720726538
:10546000666572656E636520686569676874206F3C
:10547000662063616C6962726174696F6E20706F1F
:10548000696E7400FFFF506C6561736520636C6525
:10549000616E20746865206E6F7A7A6C6520666F25
:1054A000722063616C6962726174696F6E2E204351
:1054B0006C69636B207768656E20646F6E652E0083
:1054C000FFFF4175746F20686F6D6500FFFF536FBC
:1054D0007274696E672066696C657300FFFF536FB5
:1054E0006D652066696C65732077696C6C206E6FE2
:1054F0007420626520736F727465642E204D61782C
:105500002E204E6F2E206F662066696C65732069B1
:105510006E203120666F6C64657220666F72207336
:105520006F7274696E67206973203130302E0020ED
:10553000746F6F206C6F6E67206578747275736915
:105540006F6E2070726576656E7465640020636F9F
:105550006C6420657874727573696F6E2070726503
:1055600076656E74656400544D4320445249564537
:1055700052204F56455254454D5000256325336403
:105580002F25642563005A25362E32662563005A7E
:105590002020202D2D2D2000256325336425250076
:1055A0002D2D2D00253364002533532533732525F8
:1055B0000020534400202020005553420020257530
:1055C0003E257500203F3E257500204625750020AC
:1055D000463F002046524D20002563253375682044
:1055E00025632563002563253032753A25303275F1
:1055F000256325630025632D2D3A2D2D2020002FB6
:105600002F20616374696F6E3A7061757365002550
:1056100073202534642052504D0A257320253464AC
:105620002052504D0A00686F77746F2E7072757338
:105630006133642E636F6D00666F72756D2E7072CC
:1056400075736133642E636F6D00707275736133AF
:10565000642E636F6D0025533A0A2531382E326669
:105660006D200A25533A0A2531306C6464202530B8
:1056700032646820253032646D0025533A0A2531A2
:10568000382E32666D200A25533A0A2531306C6473
:105690006820253032646D20253032647300253651
:1056A0002E32666D6D0025530A25530A25533A0A9A
:1056B00025533A0025332E32660100252D31342E34
:1056C0003134533A0A25530A252D31342E313453BF
:1056D0003A25332E3266010A252D31342E313453CA
:1056E0003A25332E32660100202030002020310080
:1056F00020496E743A20253364202058643A2536B8
:10570000640A536875743A20253364202059643A3A
:105710002536640046494E444100FFFF50494E443F
:10572000410057697A61726420656E642073746108
:1057300074653A2025640A00FFFF53706F6F6C4A4E
:105740006F696E00FFFF4669726D7761726500FFD9
:10575000FF466C617368416972004572723A20506D
:1057600052494E542046414E204552524F52004518
:1057700072723A20455854522E2046414E204552CE
:10578000524F52002F2F20616374696F6E3A726519
:1057900073756D6564002F2F20616374696F6E3AB5
:1057A000706175736564002F2F20616374696F6E7B
:1057B0003A726573756D65002F2F20616374696F90
:1057C0006E3A63616E63656C0041786973206C6545
:1057D0006E67746820646966666572656E63653AB3
:1057E000252E33660A004D6561737572656420610C
:1057F000786973206C656E6774683A252E33660A83
:10580000004C434420737461747573206368616E47
:1058100067656400534420636172642072656C653F
:105820006173656400452D636F6F6C206D6F6465F7
:105830000045787465726E616C2053504920666C27
:105840006173680A58464C415348206973206E6F53
:1058500074207265732D0A706F6E64696E672E20F6
:105860004C616E67756167650A7377697463682058
:10587000756E617661696C61626C652E0058464C8C
:10588000415348206E6F7420726573706F6E646947
:105890006E672E002F2F20616374696F6E3A6475F6
:1058A0006D705F617661696C61626C6500507275E4
:1058B0007361206933204D4B33204F4B2E004372D0
:1058C00061736844657465637420454E41424C457C
:1058D00044210043726173684465746563742044B5
:1058E000495341424C4544002020506C616E6E6526
:1058F0007242756666657242797465733A2000205B
:1059000046726565204D656D6F72793A2000207C86
:1059100020417574686F723A2000204C61737420C6
:10592000557064617465643A200020536F66747723
:1059300061726520526573657400205761746368F5
:10594000646F67205265736574002042726F776ED2
:10595000206F7574205265736574002045787465F6
:10596000726E616C20526573657400506F7765725A
:105970005570006572726F722077726974696E6714
:1059800020746F2066696C6500446F6E65207361DA
:1059900076696E672066696C652E006F6B003F3F0D
:1059A000004E656465726C616E647300506F6C7359
:1059B0006B69004974616C69616E6F004672616E5B
:1059C0006361697300457370616E6F6C0044657547
:1059D000747363680043657374696E6100456E6734
:1059E0006C69736800256C75206279746573207723
:1059F00072697474656E20746F2025532061742061
:105A0000616464726573732030782530346C780A71
:105A100000442564202D20526561642F57726974FB
:105A2000652025530A0020436F756E7420583A2074
:105A30000045303A25642052504D2050524E313AA4
:105A400025642052504D204530403A257520505253
:105A50004E31403A25640A0064756D7020636C65B0
:105A6000617265640A006E6F2064756D70206176E6
:105A700061696C61626C650A00443231202D2072CC
:105A80006561642063726173682064756D700A00DB
:105A90006E6F2064756D7020617661696C61626CF7
:105AA000650A0064756D7020636F6D706C65746558
:105AB0006420696E20256C756D730A0058464C4150
:105AC000534800454550524F4D005352414D0044FC
:105AD0002D31202D20456E646C657373206C6F6FC3
:105AE000700A005344207072696E74696E67206298
:105AF0007974652000416374697665204578747215
:105B0000756465723A2000496E76616C696420653F
:105B100078747275646572005A204F666673657496
:105B200000556E6B6E6F776E20636F6D6D616E6486
:105B30003A2022004D32303020496E76616C696423
:105B400020657874727564657220007A5F6D617883
:105B50003A20007A5F6D696E3A2000795F6D617856
:105B60003A2000795F6D696E3A2000785F6D617848
:105B70003A2000545249474745524544006F7065EA
:105B80006E00785F6D696E3A20005265706F7274B6
:105B9000696E6720656E6473746F702073746174CE
:105BA00075730053494C454E54004E4F524D414C75
:105BB000002553204D4F44453A2050657263656E71
:105BC0007420646F6E653A20256868643B207072AB
:105BD000696E742074696D652072656D61696E69A6
:105BE0006E6720696E206D696E733A2025643B20D4
:105BF0004368616E676520696E206D696E733A2037
:105C000025640A00456E642066696C65206C6973C2
:105C10007400426567696E2066696C65206C697303
:105C20007400556E6B6E6F776E20256320636F6412
:105C3000653A2025730A000A50494E444120746594
:105C40006D70657261747572653A20252E3166201B
:105C50005A20736869667420286D6D293A20252EB4
:105C60003366000A537465703A2025642F360A00A3
:105C70000A537465703A2025642F362028736B69A7
:105C800070706564290A50494E44412074656D70F6
:105C9000657261747572653A202564205A207368B4
:105CA00069667420286D6D293A300A000A5A4552F7
:105CB0004F3A20252E33660A007374617274207483
:105CC000656D70657261747572653A20252E316656
:105CD0000A0025642020252E326600255320583ADC
:105CE00020252E356620593A20252E3566205A3A31
:105CF00020252E35660A00536C6565702E2E2E0009
:105D000045303A25642052504D0A50524E303A25C3
:105D1000642052504D0A00257500526573656E640B
:105D20000025533A20256C640A25530A0020796423
:105D30005F6D696E3D25752079645F6D61783D25E5
:105D4000752079645F6176673D25752073685F61B2
:105D500076673D25750A002073745F73756D3D2568
:105D6000752079645F73756D3D25752065725F736D
:105D7000756D3D25752065725F6D61783D25750AED
:105D800000496E616374697669747920536875742B
:105D9000646F776E004B494C4C45442E2000507286
:105DA000696E7465722068616C7465642E206B691D
:105DB0006C6C28292063616C6C656421004B494C34
:105DC0004C3A2025640A004D32323120496E76610A
:105DD0006C696420657874727564657220004D3258
:105DE000313820496E76616C69642065787472750B
:105DF00064657220004D31303920496E76616C69DE
:105E00006420657874727564657220004D31303598
:105E100020496E76616C696420657874727564657A
:105E20007220004D31303420496E76616C696420F7
:105E300065787472756465722000504F5745522022
:105E400050414E4943204445544543544544005530
:105E5000564C4F202D20656E642025640A0055564F
:105E60004C4F5F54494E59202D20656E64202564A7
:105E70000A00776F726C6420636F6F7264696E6181
:105E80007465733A2028252E33662C20252E336620
:105E90002C20252E3366290A0043757272656E74B4
:105EA00020706F73205A5F415849533A252E33664C
:105EB0000A43757272656E7420706F7320455F417E
